S0190000436173696F5F77726973745F77617463682E737265630E
S113000078C0000096C0000094C0000092C00000B8
S113001090C000008EC000008CC000008AC00000A8
S113002088C0000086C0000084C0000082C00000B8
S113003080C000007EC000007CC000007AC00000C8
S113004078C0000076C0000074C0000072C00000D8
S113005070C000006EC000006CC000000C947C0EE8
S113006068C0000066C0000064C0000062C00000F8
S113007060C000005EC000005CC000005AC0000008
S113008058C0000056C0000054C0000052C0000018
S113009050C000004EC000004CC000004AC0000028
S11300A048C0000046C0000044C0000042C0000038
S11300B040C000003EC000003CC000003AC0000048
S11300C038C0000036C0000034C0000032C0000058
S11300D030C000002EC000002CC000002AC0000068
S11300E028C00000EE040F05A005AC05B1052F06DD
S11300F0560611241FBECFEFD1E2DEBFCDBF00E014
S11301000CBF13E0A0E0B2E0ECE6F4E200E00BBFC9
S113011002C007900D92A430B107D9F723E0A4E000
S1130120B3E001C01D92A238B207E1F703D00C94EA
S1130130341266CFCF93DF93CDB7DEB7C056D10963
S11301400FB6F894DEBF0FBECDBF80E00E94160D3F
S11301508CE0E0E0F2E0DE01119601900D928A95C8
S1130160E1F78EE0ECE0F2E0DE011D9601900D92E5
S11301708A95E1F788E0EAE1F2E0DE015B9601901E
S11301800D928A95E1F788E0E2E2F2E0DE019396CF
S113019001900D928A95E1F7BE01655E7F4F81E083
S11301A00E94B60BBE016D5D7F4F82E00E94B60BCC
S11301B028961FAE289724E56A962FAF6A973CEEDF
S11301C06B963FAF6B976C961FAE6C976D961FAE98
S11301D06D976E961FAE6E976F961FAE6F97A09633
S11301E01FAEA097A1961FAEA19727961FAE279783
S11301F02E961FAE2E972C961FAE2C972D961FAEC3
S11302002D971CA668961FAE689767961FAE6797D2
S113021051E066965FAF669762961FAE62976596E9
S11302201FAE659764961FAE64972A961FAE2A97F1
S11302302F961FAE2F9769961FAE699763961FAED0
S1130240639761961FAE6197412C80E02B961FAE99
S11302502B971DAE29961FAE299760961FAE609707
S113026061E06BA791E099AB18AA1DA61FA61EA674
S11302701AAE512C1EAE1FAE21961FAE21972296A8
S11302801FAE229723961FAE239724961FAE249762
S113029025961FAE259726961FAE2697852C742C7F
S11302A001C0862D6090090186258621982F9078BB
S11302B0492E512C80FB222420F8312C8270E82F07
S11302C0F0E0FCAFEBAF0E94850AAEACBFAC219668
S11302D0CFAC21972296DFAC22972396EFAC2397DD
S11302E02496FFAC249725960FAD259726961FAD2F
S11302F026970E943A0F273E334041055105610578
S1130300710581059105D1F0C8F028A92F5F28ABAC
S11303100E94850A2EAF3FAF21964FAF21972296B8
S11303205FAF229723966FAF239724967FAF2497CE
S113033025968FAF259726969FAF26973DA53C33EC
S113034038F05FA55F5F5FA76EA56F5F6EA71DA600
S113035088A98C3320F09DA59F5F9DA718AAEFA5BF
S1130360EC3028F081E0FDADF827FDAF1FA62EA5E7
S1130370283138F039A93F5F39AB2B961FAE2B9744
S11303801EA641E05BA5511140E031E06BA562304F
S113039009F030E0432B31E08BA5843009F030E0E4
S11303A021E09BA5963009F020E091E0EBA5E73031
S11303B009F090E081E0FBA5F93009F080E051E01C
S11303C06BA56B3009F050E0342B232B922B892B37
S11303D011F4552349F089A9803290F19BA59F5FC0
S11303E09BA7E1E0E9AB2CC091E0FBA5F33009F059
S11303F090E081E02BA5253009F080E0982B81E086
S11304003BA5383009F080E021E05BA55A3009F0C3
S113041020E0892B11F4222349F069A96F3180F07F
S11304208BA58F5F8BA791E099AB0AC0EBA5E13058
S113043039F4F9A9FD3120F0EF5FEBA721E029ABF6
S11304403BA53D3010F051E05BA7141415043CF4B7
S1130450811005C081E06AAD611180E08AAF8AAD88
S1130460882321F09DAD992331F008C0E2E029965C
S1130470EFAF299703C029961FAE299712141304CE
S113048014F481E07826811030C02B962FAD2B9781
S1130490E22FF0E0EE0FFF1F81E090E08C0F9D1F34
S11304A0E80FF91F85858F9384858F9329969FADD7
S11304B02997E92FF0E0EE0FFF1F21E030E02C0F29
S11304C03D1FE20FF31F81818F9380818F9382E31D
S11304D092E09F938F931F921F920E947C0B0FB602
S11304E0F894DEBF0FBECDBF1FC091E089120DC0CE
S11304F089859A859F938F931F921F920E947C0BEC
S11305000F900F900F900F900FC0E2E08E120CC06E
S11305108F8198859F938F931F921F920E947C0BCB
S11305200F900F900F900F90F0D72AAB3BAB4CABD2
S11305305DAB6EAB7FAB88AF99AF99249394FCA568
S1130540F111912C81E02CA5223009F080E0892959
S113055009F463C03EA52C965FAD2C9735135DC09E
S11305606DA52E968FAD2E97681357C02AA93BA967
S11305704CA95DA96EA97FA988AD99AD6A96AFAC67
S11305806A976B96BFAC6B976C96CFAC6C976D9675
S1130590DFAC6D976E96EFAC6E976F96FFAC6F976E
S11305A0A0960FADA097A1961FADA1970E943A0FF8
S11305B023353C4E410551056105710581059105C1
S11305C061F158F140E050E060E070E08FEF90E0BE
S11305D0C2D7FAA96A96FFAF6A972BA96B962FAF79
S11305E06B973CA96C963FAF6C975DA96D965FAF16
S11305F06D976EA96E966FAF6E978FA96F968FAF3A
S11306006F9798ADA0969FAFA097E9ADA196EFAF75
S1130610A197F1E02796FFAF279781E02CA523301F
S113062009F080E0982A89F13DA531112EC058A91E
S113063051112BC040E050E060E070E08FEF90E09B
S11306408AD76AA96A966FAF6A978BA96B968FAFA0
S11306506B979CA96C969FAF6C97EDA96D96EFAFC5
S11306606D97FEA96E96FFAF6E972FA96F962FAF69
S11306706F9738ADA0963FAFA09759ADA1965FAFE5
S1130680A19761E027966FAF279727968FAD27979D
S1130690882389F01214130474F440E050E060E0FD
S11306A070E080E090E057D781E0711080E0782E10
S11306B027961FAE27979CA5911114C01F9281E025
S11306C08F931F9282E08F9328E332E03F932F931E
S11306D01F928F930E947C0B0FB6F894DEBF0FBE5F
S11306E0CDBF35C0FCA5F13069F489E692E09F9353
S11306F08F931F9282E08F93FFD70F900F900F90EC
S11307000F9025C02CA5223089F41F9282E08F938C
S11307102BE332E03F932F931F928F93EDD70F90EB
S11307200F900F900F900F900F9011C01F9281E0C7
S11307308F938BE392E09F938F931F9282E08F932A
S1130740DBD70F900F900F900F900F900F902AA966
S11307503BA94CA95DA96EA97FA988AD99ADA3E673
S11307600E94430F51F048F081E028963FAD28974E
S1130770311180E028968FAF289751E0851609F44F
S113078058C0851648F062E0861609F417C183E064
S1130790881609F4D4C29FC61F9299A99F938EE329
S11307A092E09F938F9382E18F931F92A5D71F921C
S11307B0E8A9EF931F92FDA5FF938DE492E09F9328
S11307C08F9382E08F9381E08F9396D70FB6F8943E
S11307D0DEBF0FBECDBF3AAD311112C01F925EA570
S11307E05F9383E592E09F938F931F9281E08F93B1
S11307F083D70F900F900F900F900F900F9011C010
S11308001F926FA56F9383E592E09F938F931F923E
S113081081E08F9371D70F900F900F900F900F90EE
S11308200F908BAD9CAD181619060CF054C683942A
S113083052C6EBADFCAD1E161F060CF483941414C3
S1130840150444F42D96FFAD2D97F11103C02CA58A
S11308502F5F2CA73CA5343008F01CA61F922C96C1
S11308605FAD2C975F9383E592E09F938F931F92E4
S113087011E01F9341D71F922E966FAD2E976F9361
S113088081E492E09F938F9383E08F931F9334D7F7
S11308908AE692E09F938F9386E08F931F932CD7E1
S11308A00FB6F894DEBF0FBECDBF2D969FAD2D972A
S11308B0913099F020F0923009F44FC00CC6121414
S11308C013040CF008C62D96EFAD2D97EF5F2D960F
S11308D0EFAF2D9777247394FEC52896FFAD289724
S11308E0FF2371F087E492E09F938F9382E08F93CC
S11308F081E08F9301D70F900F900F900F900DC050
S11309008BE692E09F938F9382E08F9381E08F93A5
S1130910F3D60F900F900F900F90141415043CF41D
S11309202C962FAD2C972F5F2C962FAF2C972C96AF
S11309303FAD2C97383118F02C961FAE2C9712141B
S113094013040CF0C8C52D965FAD2D975F5F2D96EF
S11309505FAF2D9777247394BEC528966FAD289703
S1130960662371F087E492E09F938F9385E08F93E1
S113097081E08F93C1D60F900F900F900F900DC010
S11309808BE692E09F938F9385E08F9381E08F9322
S1130990B3D60F900F900F900F90141415043CF4DD
S11309A02E968FAD2E978F5F2E968FAF2E972E9605
S11309B09FAD2E979C3308F042C58DC52F96EFADA1
S11309C02F978E2F90E08730910508F0B0C1FC017D
S11309D08827EE58FF4F8F4F0C94C80E1F926196D4
S11309E0FFAD6197FF931F9263962FAD63972F938B
S11309F01F9269963FAD69973F9389E492E09F9374
S1130A008F931F9281E08F9377D60FB6F894DEBF51
S1130A100FBECDBF141415040CF44CC188C11F9231
S1130A2061969FAD61979F931F926396EFAD639715
S1130A30EF931F926996FFAD6997FF9389E492E063
S1130A409F938F931F9281E08F9356D65ED5AEAC61
S1130A50BFAC2196CFAC21972296DFAC2297239688
S1130A60EFAC23972496FFAC249725960FAD2597DA
S1130A7026961FAD26970E943A0F0FB6F894DEBF54
S1130A800FBECDBFA9E00E94430FE9F0E0F06196EC
S1130A90FFAD6197FF5F6196FFAF619736D52EAFCB
S1130AA03FAF21964FAF219722965FAF22972396AF
S1130AB06FAF239724967FAF249725968FAF259702
S1130AC026969FAF269761962FAD6197243650F0F6
S1130AD063963FAD63973F5F63963FAF63976196BD
S1130AE01FAE619763965FAD63975C3350F0699670
S1130AF06FAD69976F5F69966FAF699763961FAE25
S1130B0063971414150424F482E02F968FAF2F9763
S1130B1061969FAD6197933671F46396EFAD6397D9
S1130B20EB3349F46996FFAD6997FB3321F423E075
S1130B302F962FAF2F97121413040CF4C0C0F7C0D4
S1130B401414150424F431E02F963FAF2F97121498
S1130B5013040CF4BBC0EBC0121413040CF4C5C092
S1130B60E6C0D3D4AEACBFAC2196CFAC21972296CD
S1130B70DFAC22972396EFAC23972496FFAC2497FF
S1130B8025960FAD259726961FAD26970E943A0FFE
S1130B90A9E00E94430FE9F0E0F061965FAD619730
S1130BA05F5F61965FAF6197B0D42EAF3FAF219680
S1130BB04FAF219722965FAF229723966FAF23976B
S1130BC024967FAF249725968FAF259726969FAFBF
S1130BD0269761966FAD6197643650F063968FAD3A
S1130BE063978F5F63968FAF639761961FAE61972C
S1130BF063969FAD63979C3350F06996EFAD699708
S1130C00EF5F6996EFAF699763961FAE639714140D
S1130C10150424F4F2E02F96FFAF2F9761962FADC1
S1130C206197233671F463963FAD63973B3349F480
S1130C3069965FAD69975B3321F463E02F966FAFDC
S1130C402F971214130434F481E02F968FAF2F974B
S1130C5077247394141415040CF456C068C0121449
S1130C6013040CF064C01F9261969FAD61979F932B
S1130C701F926396EFAD6397EF931F926996FFAD52
S1130C806997FF9389E492E09F938F931F9281E089
S1130C908F9332D50FB6F894DEBF0FBECDBF36E0CA
S1130CA02F963FAF2F977724739441C012141304E7
S1130CB084F13DC051E02F965FAF2F9738C064E0B8
S1130CC02F966FAF2F977724739431C02F961FAE52
S1130CD02F9769961FAE699763961FAE63976196C7
S1130CE01FAE61977724739422C02F961FAE2F975F
S1130CF069961FAE699763961FAE639761961FAEA0
S1130D0061977724739413C085E02F968FAF2F9744
S1130D100EC02F961FAE2F9769961FAE69976396E4
S1130D201FAE639761961FAE619777247394EBAD02
S1130D30FCAD1E161F060CF0CEC38394CCC38C8569
S1130D408F938B858F9385E392E09F938F931F926C
S1130D501F92D2D40F900F900F900F900F900F907E
S1130D606096FFAD6097F1113DC02B962FAD2B9788
S1130D70E22FF0E0EE0FFF1F81E090E08C0F9D1F4B
S1130D80E80FF91F85858F9384858F9385E392E01F
S1130D909F938F9383E08F931F92AED40F900F9005
S1130DA00F900F900F900F902B969FAD2B976896F6
S1130DB09FAF6897E9A96796EFAF6797FBA566961B
S1130DC0FFAF66972EA562962FAF62973DA56596F5
S1130DD03FAF659758A964965FAF649761E06096EA
S1130DE06FAF60972A968FAD2A97833048F51F928C
S1130DF062969FAD62979F9303E512E01F930F9352
S1130E001F92FF24F394FF9277D41F926596EFAD5F
S1130E106597EF931F930F9383E08F93FF926CD4A6
S1130E201F926496FFAD6497FF931F930F9386E020
S1130E308F93FF9261D40FB6F894DEBF0FBECDBF7F
S1130E402A963FAD2A97323009F4EDC030F43323AB
S1130E5081F0313009F47DC0F6C22A965FAD2A973D
S1130E60543009F4D3C108F449C1553009F446C2D9
S1130E70EAC228966FAD28976623E1F007E412E0F2
S1130E801F930F936894992493F89F92FF24F394EB
S1130E90FF9232D41F930F939F92FF922DD41F93EE
S1130EA00F939F92FF9228D40FB6F894DEBF0FBE23
S1130EB0CDBF1BC00BE612E01F930F9368949924D7
S1130EC093F89F92FF24F394FF9216D41F930F93E9
S1130ED09F92FF9211D41F930F939F92FF920CD471
S1130EE00FB6F894DEBF0FBECDBF2BAD3CAD1216CE
S1130EF013060CF4812C12141304B4F48BE692E060
S1130F009F938F9388E08F9381E08F93F5D32A96F4
S1130F103FAD2A973F5F2A963FAF2A970F900F90D5
S1130F200F900F9077247394141415043CF4649672
S1130F305FAD64975F5F64965FAF649764966FADCF
S1130F4064976C3308F084C285E029968FAF2997A3
S1130F50C2C228969FAD28979923E1F007E412E0D6
S1130F601F930F936894992491F89F92FF24F3940C
S1130F70FF92C2D31F930F939F92FF92BDD31F93EF
S1130F800F939F92FF92B8D30FB6F894DEBF0FBEB3
S1130F90CDBF1BC00BE612E01F930F9368949924F6
S1130FA091F89F92FF24F394FF92A6D31F930F937B
S1130FB09F92FF92A1D31F930F939F92FF929CD372
S1130FC00FB6F894DEBF0FBECDBF12141304B4F4F1
S1130FD02A963FAD2A973F5F2A963FAF2A9787E428
S1130FE092E09F938F9382E08F9381E08F9384D3D9
S1130FF00F900F900F900F9077247394141415048E
S11310003CF462965FAD62975F5F62965FAF6297F2
S113101062966FAD6297683108F022C285E0299626
S11310208FAF299758C228969FAD28979923E9F046
S113103007E412E01F930F930F2EF5E09F2EF02D7F
S11310409F92FF24F394FF9257D31F930F939F9281
S1131050FF9252D31F930F939F92FF924DD30FB6DB
S1131060F894DEBF0FBECDBF1CC00BE612E01F9389
S11310700F930F2EF5E09F2EF02D9F92FF24F394F3
S1131080FF923AD31F930F939F92FF9235D31F93EE
S11310900F939F92FF9230D30FB6F894DEBF0FBE2A
S11310A0CDBF12141304ACF42A963FAD2A973F5FC8
S11310B02A963FAF2A9788E592E09F938F931F92D9
S11310C081E08F9319D30F900F900F900F90772496
S11310D07394141415043CF465965FAD65975F5FD3
S11310E065965FAF659765966FAD65976C3308F04D
S11310F0BFC185E029968FAF2997EDC128969FAD92
S11311002897992309F107E412E01F930F93689439
S1131110992491F89F92FF24F394FF92EDD21F93A8
S11311200F939F92FF92E8D21F930F939F92FF9287
S1131130E3D21F930F939F92FF92DED20FB6F894DF
S1131140DEBF0FBECDBF20C00BE612E01F930F938E
S11311506894992491F89F92FF24F394FF92CCD23F
S11311601F930F939F92FF92C7D21F930F939F9247
S1131170FF92C2D21F930F939F92FF92BDD20FB6DC
S1131180F894DEBF0FBECDBF12141304B4F42A9634
S11311903FAD2A973F5F2A963FAF2A978BE692E0AE
S11311A09F938F9382E08F9381E08F93A5D20F90CA
S11311B00F900F900F9077247394141415043CF43B
S11311C066965FAD66975F5F66965FAF6697669655
S11311D06FAD66976D3020F081E066968FAF6697AD
S11311E0A12C6894CC24C1F86696EFAC6697F12CD8
S11311F000E010E020E030E040E050E060E081E01A
S1131200DCD295E029969FAF299765C12896EFAD6A
S11312102897EE23D9F007E412E01F930F930F2EC3
S1131220F1E1FF2EF02DFF921F9266D21F930F93D0
S1131230FF921F9261D21F930F93FF921F925CD271
S11312400FB6F894DEBF0FBECDBF15C00BE612E09B
S11312501F930F930F2EF1E1FF2EF02DFF921F929B
S11312604BD21F930F93FF921F9246D20FB6F8945E
S1131270DEBF0FBECDBF12141304ACF48BE692E0B4
S11312809F938F9381E18F931F9236D22A969FADBD
S11312902A979F5F2A969FAF2A970F900F900F90DF
S11312A00F9077247394141415043CF46796EFADEF
S11312B06797EF5F6796EFAF67976796FFAD67979E
S11312C0F03220F021E067962FAF67971F92679660
S11312D03FAD67973F938DE692E09F938F9382E1B2
S11312E08F931F9209D20F900F900F900F900F9031
S11312F00F9055E029965FAF2997EDC028966FAD02
S113130028976623D9F007E412E01F930F930F2E5A
S1131310F5E0FF2EF02DFF921F92EED11F930F9355
S1131320FF921F92E9D11F930F93FF921F92E4D172
S11313300FB6F894DEBF0FBECDBF1CC00BE612E0A3
S11313401F930F930F2EF5E0FF2EF02DFF921F92A7
S1131350D3D11F930F93FF921F92CED187E492E0D3
S11313609F938F93FF921F92C7D10FB6F894DEBF5D
S11313700FBECDBF141415043CF46896FFAD6897F6
S1131380FF5F6896FFAF689768962FAD6897273020
S113139018F068961FAE689768963FAD6897E32F7C
S11313A0F0E0EE0FFF1F81E090E08C0F9D1FE80F2F
S11313B0F91F85858F9384858F9385E392E09F93AE
S11313C08F9383E08F931F9297D10F900F900F907C
S11313D00F900F900F90EBADFCAD1E161F060CF096
S11313E04FC06296FFAD6297FC3008F44EC0FC50CB
S11313F0FFA768962FAD68972B962FAF2B9766960D
S11314003FAD66973BA767965FAD679759AB649608
S11314106FAD649768AB65968FAD65978DA762963F
S11314209FAD62979EA72A961FAE2A97E5E029965C
S1131430EFAF299760961FAE6097812C4CC02E9613
S11314401FAE2E9748C0F5E02996FFAF299743C0F9
S113145064961FAE649725E029962FAF29973BC069
S113146062961FAE629735E029963FAF299733C045
S113147065961FAE659755E029965FAF29972BC0F7
S113148065E029966FAF299726C068968FAD689757
S11314902B968FAF2B9766969FAD66979BA7679603
S11314A0EFAD6797E9AB6496FFAD6497F8AB6596CB
S11314B02FAD65972DA762963FAD62973FA73EA7D4
S11314C02A961FAE2A9755E029965FAF2997609612
S11314D01FAE6097812C772021F08FEF7BD00C9486
S11314E0510180E077D00C94510182B995B90895E7
S11314F080910901089583E084BD8BE085BD81E07E
S113150080936E0089EF87BD08952091090330917F
S11315100A0340910B0350910C0360910D037091E9
S11315200E0380910F0390911003089511BA10BA1D
S1131530109208011092070180E480937C008FE0F0
S113154080937E008FEF80937D0087E880937A00FC
S113155010927B0008952FEF33E0F901E81BF90B9B
S1131560C901861B970B241B350BF093A900E0934C
S1131570A8009093AB008093AA003093AD00209311
S1131580AC0008958EEF8093A0008BE18093A100BE
S113159083E08093A7008FEF8093A60040E050E0A3
S11315A060E070E080E090E0D6CF0895882321F0D9
S11315B084B3816084BB089584B38E7F84BB089513
S11315C0882321F084B3826084BB089584B38D7F23
S11315D084BB0895811104C084B58F7D84BD0895B2
S11315E094B5906294BD88BD0895EF92FF920F93D5
S11315F01F93CF93DF937C01EB0181E0D7DF00E001
S113160010E006C080E0DCDF81E0DADF0F5F1F4F0F
S113161005301105B8F380E0C9DF80E0D1DF81E057
S1131620CFDF83E4E816F10419F480E0BFDF02C0E1
S113163081E0BCDF80E0C4DF81E0C2DF80E0B6DFB0
S113164080E0BEDF81E0BCDF00E010E011C080E09C
S1131650B7DFC0FF03C081E0A9DF02C080E0A6DFDE
S1131660D695C79580E0ACDF81E0AADF0F5F1F4FFE
S11316700430110560F380E099DF00E010E006C05B
S113168080E09EDF81E09CDF0F5F1F4F0430110577
S1131690B8F300E010E011C080E092DFC0FF03C0A7
S11316A081E084DF02C080E081DFD695C79580E0C9
S11316B087DF81E085DF0F5F1F4F0430110560F382
S11316C080E074DFC0E0D0E005C080E079DF81E035
S11316D077DF2196C430D105C0F381E067DF87EC62
S11316E090E00197F1F700C00000DF91CF911F91C6
S11316F00F91FF90EF9008951F93CF93DF93CDB791
S1131700DEB765970FB6F894DEBF0FBECDBF9E015E
S1131710205E3F4F4E8D5F8D65E170E0CE010196F6
S1131720BED36D8D8C8D90E2899F600D112460680D
S113173070E083E490E059DF10E005C01F5F70E0C3
S113174084E490E052DFE1E0F0E0EC0FFD1FE10FF4
S1131750F11D60816111F2CF65960FB6F894DEBF7A
S11317600FBECDBFDF91CF911F9108950F931F93AB
S1131770CF939FEF980F9730D8F48B01682F70E0C8
S1131780660F771F660F771F660F771F606483E409
S113179090E02BDFC0E009C0F801EC0FF11D60817F
S11317A070E084E490E021DFCF5FC830A8F301C08B
S11317B0FFCFCF911F910F9108952F923F924F9297
S11317C05F926F927F928F929F92AF92BF92CF92CD
S11317D0DF92EF92FF920F931F93CF93DF93CDB7D6
S11317E0DEB7E4970FB6F894DEBF0FBECDBF88AB6B
S11317F069ABEBA6FCA6502E412E2DA73AAB342E96
S1131800252E7C2CAEA62A2D2C0D2FA7253170F069
S11318108BE992E09F938F9389A98F9328A92F93A3
S11318206BDF0F900F900F900F90AFC08EA58111BA
S113183002C01CAA02C021E02CAB612C7BAA762C2E
S11318406AA833C083E190E04C01871891080F2EF9
S1131850FAE0AF2EF02DB12CC12CD12CE12CF12CBF
S113186000E010E02BA53CA5452D542D6DA5762D4B
S1131870832D922D95D2E1E0F0E0EC0FFD1FE80DF1
S1131880F91D205D20832BA53CA5452D542D6DA568
S1131890762D832D922D86D22BA73CA7542E452E30
S11318A06DA7672E382E292E739483E1871550F681
S11318B07BA894E12FA5921B80E020E011C0E1E019
S11318C0F0E0EC0FFD1FE90FF11D3081E5E1F0E0E0
S11318D0EC0FFD1FE80FF11D30838F5F9F5F2F5FBB
S11318E0271568F32CA9222349F0E5E1F0E0EC0F79
S11318F0FD1FE80FF11D2EE220838F5F20E04EA52F
S113190011C0E1E0F0E0EC0FFD1FE90FF11D3081A3
S1131910E5E1F0E0EC0FFD1FE80FF11D30838F5F70
S11319209F5F2F5F241768F3E5E1F0E0EC0FFD1FE4
S1131930E80FF11D108240E009C04F5FE5E1F0E0DF
S1131940EC0FFD1FE80FF91F20E22083842F90E0A5
S1131950E5E1F0E0EC0FFD1FE80FF91F20812033D3
S113196039F4272D30E021503109821793072CF3E5
S1131970CE0145969F938F9389A98F9328A92F937E
S1131980BBDE0F900F900F900F90E4960FB6F89473
S1131990DEBF0FBECDBFDF91CF911F910F91FF909E
S11319A0EF90DF90CF90BF90AF909F908F907F90FB
S11319B06F905F904F903F902F90089561E070E09A
S11319C083E490E012DE8FE39FE10197F1F700C01A
S11319D000008BE692E09F938F931F921F928CDE00
S11319E00F900F900F900F90089581E0E9DD80E053
S11319F0DDDD64E370E083E490E0F7DD69E070E04E
S1131A0083E490E0F2DD60E370E083E490E0EDDDF8
S1131A106CE070E083E490E0E8DDD0DF67E070E044
S1131A2083E490E0E2DD80E0D5CD0895FF920F934A
S1131A301F93CF93DF93C82F85B785BF12B88FEF5D
S1131A4081B915B884B988B917B88BB91AB88EB9E1
S1131A501DB89EB19B7F9EB911BA10BA94E094BB95
S1131A6093B3936093BB93B3906293BB97EC9093BF
S1131A70020198E3909301011092050180930401FF
S1131A8010920801109207018CE380930B011092CD
S1131A900A01789430DDA9DF49DD74DDCC2309F433
S1131AA0A3C08FEF97DD40E050E06FEF73E080E07C
S1131AB090E051DD80EB92E09F938F931F921F92F1
S1131AC01BDE85EC92E09F938F931F9281E08F93AE
S1131AD013DE8BE992E09F938F931F9282E08F93A2
S1131AE00BDE8AED92E09F938F931F9283E08F9396
S1131AF003DE8DB79EB740960FB6F8949EBF0FBE17
S1131B008DBFFF24F394C0E010E001E0D0E0002397
S1131B1051F080E090E80D2E02C0969587950A94C6
S1131B20E2F7E3DC09C081E090E00D2E02C0880FEB
S1131B30991F0A94E2F7D9DCDF5FD13128F081E004
S1131B40011180E0082FD0E0FF2011F0CE5F01C02A
S1131B50C2508C2F3FDDCE3F09F4F12CC83711F46D
S1131B60FF24F394111117C0C3DC837CA1F040E07F
S1131B7050E066E272E08FEF93E0EDDC8FEE92E0EE
S1131B809F938F931F9283E08F93B6DD0F900F90F6
S1131B900F900F9011E0112319F0AADC837C39F027
S1131BA08FEF9CE70197F1F700C00000B0CF06DF8C
S1131BB080E010DD80E090E098DC40E050E060E000
S1131BC070E080E090E0C7DC1092090310920A03F1
S1131BD010920B0310920C0310920D0310920E033B
S1131BE010920F0310921003DF91CF911F910F9168
S1131BF0FF900895CF93DF93CDB7DEB728970FB644
S1131C00F894DEBF0FBECDBF88E0EAE2F2E0DE0169
S1131C10119601900D928A95E1F7E5E0F1E080815B
S1131C208F7B8083E0910603F091070381E090E0CD
S1131C308C0F9D1FE80FF91F808190E0909305039E
S1131C408093040380E026C0E7E3F0E0E81BF10999
S1131C50EE0FFF1FEE5EFC4F408151812091040383
S1131C603091050324233523232B31F0E5E0F1E003
S1131C7090819062908305C0E5E0F1E090819F7DC2
S1131C809083E5E0F1E090819061908390819F7E64
S1131C9090838F5F8833C0F2E5E0F1E08081877F35
S1131CA080838081887F8083908180910603892B43
S1131CB08083808180648083808188608083809138
S1131CC00603909107038730910530F401969093B1
S1131CD007038093060307C01092070310920603BC
S1131CE081E08093080328960FB6F894DEBF0FBEF8
S1131CF0CDBFDF91CF9108951F920F920FB60F922F
S1131D0011240BB60F922F933F934F935F936F93CE
S1131D107F938F939F93AF93BF93EF93FF93209100
S1131D20090330910A0340910B0350910C03609115
S1131D300D0370910E0380910F0390911003A1E0A5
S1131D408DD02093090330930A0340930B035093DF
S1131D500C0360930D0370930E0380930F03909311
S1131D60100380911103811145DFFF91EF91BF9121
S1131D70AF919F918F917F916F915F914F913F911F
S1131D802F910F900BBE0F900FBE0F901F901895C0
S1131D90EE0FFF1F881F8BBF0790F691E02D19945B
S1131DA0689401C0E8948F929F92CF93DF9305D0FB
S1131DB0DF91CF919F908F90089588249924F40106
S1131DC0E401B0E49F93AA279A158B049C04ED05C3
S1131DD0FE05CF05D007A10798F4AD2FDC2FCF2F38
S1131DE0FE2FE92D982C892E982F872F762F652F7B
S1131DF0542F432F322F2227B85031F7BF9127C0D9
S1131E001B2EBF91BB27220F331F441F551F661F74
S1131E10771F881F991F881C991CEE1FFF1FCC1F5A
S1131E20DD1FAA1FBB1F8A149B04EC05FD05CE050C
S1131E30DF05A007B10748F08A189B08EC09FD09E3
S1131E40CE09DF09A00BB10B21601A94E1F62EF440
S1131E509401AF01BE01CD01000C08950024A7FD3B
S1131E6000942A0F301D401D501D601D701D801DE3
S1131E70901D08952A193B094C095D096E097F09D3
S1131E80800B910B08950024A7FD00942A173005B8
S1131E9040055005600570058005900508950F9371
S1131EA01F93CF93DF93CDB7DEB72E970FB6F89479
S1131EB0DEBF0FBECDBF8C01FA0186E08C831A838E
S1131EC0098377FF02C060E070E8CB0101979E832D
S1131ED08D83A901BF01CE01019619D04D815E8188
S1131EE057FD0AC02F813885421753070CF49A0115
S1131EF0F801E20FF31F10822E960FB6F894DEBF9E
S1131F000FBECDBFDF91CF911F910F9108952F92F6
S1131F103F924F925F926F927F928F929F92AF9275
S1131F20BF92CF92DF92EF92FF920F931F93CF93C2
S1131F30DF93CDB7DEB72B970FB6F894DEBF0FBE95
S1131F40CDBF6C017B018A01FC011782168283815B
S1131F5081FFBFC1CE0101963C01F6019381F701D7
S1131F6093FD859193FF81917F01882309F4ADC18D
S1131F70853239F493FD859193FF81917F018532F8
S1131F8021F4B60190E0D6D1E8CF912C212C312C4C
S1131F90FFE1F315D8F08B3279F038F4803279F020
S1131FA08332A1F4232D20611DC08D3261F0803372
S1131FB069F4232D216016C0832D8260382EE32D11
S1131FC0E4603E2E2AC0F32DF8601DC037FC2DC0FE
S1131FD020ED280F2A3040F08E32B9F436FC75C15A
S1131FE0232D2064322E19C036FE06C08AE0989E46
S1131FF0200D1124922E11C0EAE02E9E200D1124F2
S1132000222EF32DF0623F2E08C08C3621F4832D4E
S11320108068382E02C0883641F4F70193FD85911B
S113202093FF81917F018111B3CF982F9F7D9554A8
S1132030933028F40C5F1F4F9FE399830DC08336C0
S113204031F0833771F0833509F055C020C0F801B1
S1132050808189830E5F1F4F88248394912C5301C0
S113206012C02801F2E04F0E511CF801A080B1808B
S113207036FE03C0692D70E002C06FEF7FEFC5012B
S11320804ED14C018201F32DFF773F2E15C028015C
S113209022E0420E511CF801A080B18036FE03C03C
S11320A0692D70E002C06FEF7FEFC5012DD14C01A7
S11320B0F32DF0683F2E820133FC19C0822D90E08D
S11320C088169906A0F4B60180E290E033D12A94F0
S11320D0F5CFF50137FC859137FE81915F01B6019B
S11320E090E028D121102A9421E0821A91088114C9
S11320F0910479F7E1C0843611F0893639F5F80195
S113210037FE07C060817181828193810C5F1F4F0C
S113211008C060817181072E000C880B990B0E5F3B
S11321201F4FF32DFF763F2E97FF09C090958095A2
S1132130709561957F4F8F4F9F4FF0683F2E2AE037
S113214030E0A30133D1882E861844C0853731F49A
S1132150232D2F7EB22E2AE030E025C0932D997FC7
S1132160B92E8F36C1F018F4883579F0AEC08037B7
S113217019F0883721F0A9C0E92FE061BE2EB4FE22
S11321800DC0FB2DF460BF2E09C034FE0AC0292FF8
S11321902660B22E06C028E030E005C020E130E021
S11321A002C020E132E0F801B7FE07C0608171810E
S11321B0828193810C5F1F4F06C06081718180E032
S11321C090E00E5F1F4FA301F1D0882E8618FB2DDF
S11321D0FF773F2E36FE0DC0232D2E7FA22E8914AD
S11321E058F434FE0BC032FC09C0832D8E7EA82E19
S11321F005C0B82CA32C03C0B82C01C0B92CA4FE74
S11322000FC0FE01E80DF11D8081803321F49A2D69
S1132210997EA92E09C0A2FE06C0B394B39404C04B
S11322208A2D867809F0B394A3FC10C0A0FE06C0E2
S1132230B21480F4280C922C9B180DC0B21458F4DC
S1132240B60180E290E076D0B394F8CFB21418F4DB
S11322502B1802C0982C212CA4FE0FC0B60180E3D9
S113226090E068D0A2FE16C0A1FC03C088E790E00D
S113227002C088E590E0B6010CC08A2D867851F042
S1132280A1FE02C08BE201C080E2A7FC8DE2B60190
S113229090E050D0891430F4B60180E390E04AD045
S11322A09A94F8CF8A94F301E80DF11D8081B60168
S11322B090E040D08110F6CF222009F44ECEB60132
S11322C080E290E037D02A94F7CFF6018681978197
S11322D002C08FEF9FEF2B960FB6F894DEBF0FBEB0
S11322E0CDBFDF91CF911F910F91FF90EF90DF90C1
S11322F0CF90BF90AF909F908F907F906F905F90A2
S11323004F903F902F900895FC01059061507040CC
S11323100110D8F7809590958E0F9F1F0895FC01AA
S11323206150704001900110D8F7809590958E0F00
S11323309F1F08950F931F93CF93DF93FB01238176
S113234021FD03C08FEF9FEF2CC022FF16C04681F2
S11323505781248135814217530744F4A081B18108
S11323609D012F5F3F4F318320838C9326813781DA
S11323702F5F3F4F3783268314C08B01EC01FB0191
S11323800084F185E02D1995892BE1F6D801169684
S11323908D919C911797019617969C938E931697FF
S11323A0CE01DF91CF911F910F910895FA01AA27D1
S11323B0283051F1203181F1E8946F936E7F6E5F84
S11323C07F4F8F4F9F4FAF4FB1E03ED0B4E03CD032
S11323D0670F781F891F9A1FA11D680F791F8A1F15
S11323E0911DA11D6A0F711D811D911DA11D20D07C
S11323F009F468943F912AE0269F11243019305D36
S11324003193DEF6CF010895462F4770405D419326
S1132410B3E00FD0C9F7F6CF462F4F70405D4A3373
S113242018F0495D31FD4052419302D0A9F7EACF3B
S1132430B4E0A6959795879577956795BA95C9F76A
S113244000976105710508959B01AC010A2E06945D
S11324505795479537952795BA95C9F7620F731F16
S10F2460841F951FA01D0895F894FFCF61
S113246C7102740277027A027D0283028602890267
S113247C8C028F02920295029802040E0E0E1F1FFC
S113248C040000151515151515000102040810207B
S113249C4080257320257300256320256300257552
S11324AC002530327520003A00253032753A25303B
S11324BC32753A253032750020202020202020202F
S11324CC20202020202020202020202000257520C2
S11324DC00414D00504D00323400535400414C2007
S11324EC2020005355004D4F0054550057450054BF
S11324FC4800465200534100534F002D2D2D2D2DD5
S113250C2D2D2D2D2D2D2D2D2D2D2D2D2D2D2D0018
S113251C20202020202075432D426F6172642020DE
S113252C202020200041546D6567613235363020FF
S113253C6174203136204D487A00507265737320D3
S113254C616E79206B657920746F2072756E002032
S113255C2072656C6561736520616C6C206B6579A8
S107256C73202000B4
S9030000FC
