:1000000078C0000096C0000094C0000092C00000BC
:1000100090C000008EC000008CC000008AC00000AC
:1000200088C0000086C0000084C0000082C00000BC
:1000300080C000007EC000007CC000007AC00000CC
:1000400078C0000076C0000074C0000072C00000DC
:1000500070C000006EC000006CC000000C94FA0973
:1000600068C0000066C0000064C0000062C00000FC
:1000700060C000005EC000005CC000005AC000000C
:1000800058C0000056C0000054C0000052C000001C
:1000900050C000004EC000004CC000004AC000002C
:1000A00048C0000046C0000044C0000042C000003C
:1000B00040C000003EC000003CC000003AC000004C
:1000C00038C0000036C0000034C0000032C000005C
:1000D00030C000002EC000002CC000002AC000006C
:1000E00028C000009303B4032B0437043C04A0048D
:1000F000C70411241FBECFEFD1E2DEBFCDBF00E0A9
:100100000CBF13E0A0E0B2E0ECEAFAE100E00BBFC4
:1001100002C007900D92AA30B107D9F723E0AAE0F8
:10012000B3E001C01D92A838B207E1F703D00C94E8
:10013000540D66CFCF93DF93CDB7DEB7CE54D10940
:100140000FB6F894DEBF0FBECDBF80E0EDD78CE0D8
:10015000E0E0F2E0DE01119601900D928A95E1F760
:100160008EE0ECE0F2E0DE011D9601900D928A95A2
:10017000E1F788E0EAE1F2E0DE015B9601900D92A2
:100180008A95E1F788E0E2E2F2E0DE0193960190E1
:100190000D928A95E1F7BE01655E7F4F81E065D7DC
:1001A000BE016D5D7F4F82E060D71DAE24961FAE0D
:1001B000249722961FAE229723961FAE23971DA643
:1001C0002E961FAE2E972D961FAE2D9721E02C96C2
:1001D0002FAF2C9728961FAE28972B961FAE2B97E4
:1001E0002A961FAE2A971FAE25961FAE25972F96EB
:1001F0001FAE2F9729961FAE299727961FAE2797D8
:10020000212C80E021961FAE21971CAA1EAE2696B7
:100210001FAE269731E03BA751E05FA718AA1CA6A6
:100220001EA6912C19AA812C1DAA1EAA1FAA18AEBF
:1002300019AE1AAE1BAE1CAE01C0832D3090090161
:1002400083258321982F9078492E512C80FB66249A
:1002500060F8712C8270E82FF0E0FBABEAABD4D5EC
:10026000ADA8BEA8CFA8D8ACE9ACFAAC0BAD1CAD1C
:100270000E945A0A273E3340410551056105710528
:100280008105910569F060F028A92F5F28ABBCD5E6
:100290002DAB3EAB4FAB58AF69AF7AAF8BAF9CAFD6
:1002A0003CA53C3328F05EA55F5F5EA793941CA637
:1002B00068A96C3320F08CA58F5F8CA718AA9EA527
:1002C0009C3028F081E0ECA9E827ECAB1EA6F7E112
:1002D000F91538F42FA52F5F2FA721961FAE219770
:1002E000912C41E03BA5311140E031E05BA552305B
:1002F00009F030E0432B31E06BA5643009F030E0C9
:1003000021E08BA5863009F020E091E0EBA5E730F5
:1003100009F090E081E0FBA5F93009F080E051E0C0
:100320006BA56B3009F050E0342B232B922B892BDB
:1003300011F4552349F08FA5803290F19BA59F5F62
:100340009BA7E1E0EFA72CC091E0FBA5F33009F0FB
:1003500090E081E02BA5253009F080E0982B81E02A
:100360003BA5383009F080E021E05BA55A3009F068
:1003700020E0892B11F4222349F06FA56F3180F022
:100380008BA58F5F8BA791E09FA70AC0EBA5E130FB
:1003900039F4FFA5FD3120F0EF5FEBA721E02FA797
:1003A0003BA53D3010F051E05BA7141415043CF45C
:1003B000811005C081E069A9611180E089AB89A93C
:1003C000882321F09CA9992321F004C0E2E0EEAF3C
:1003D00001C01EAE1614170414F481E02826811003
:1003E0002DC021962FAD2197E22FF0E0EE0FFF1FD9
:1003F00081E090E08C0F9D1FE80FF91F85858F939A
:1004000084858F939EADE92FF0E0EE0FFF1F21E072
:1004100030E02C0F3D1FE20FF31F81818F9380810D
:100420008F9382E392E09F938F931F921F92E3D565
:100430000FB6F894DEBF0FBECDBF1DC091E089128C
:100440000CC088E392E09F938F931F921F92D3D5A5
:100450000F900F900F900F900EC0E2E08E120BC025
:100460008EE392E09F938F931F921F92C4D50F90BB
:100470000F900F900F9091E0FDA5F11190E081E0B9
:100480002DA5233009F080E0892BA1F022963FAD05
:10049000229793120FC05CA524966FAD2497561334
:1004A00009C040E050E060E070E08FEF90E0D2D40F
:1004B00081E08DAF9DAD992369F01614170454F4B3
:1004C00041E050E06FEF70E081E090E0C3D41DAEFA
:1004D00022242394E1E08E1609F457C08E1648F0CA
:1004E000F2E08F1609F410C123E0821609F498C2D5
:1004F00073C41F923FA53F9381E492E09F938F9333
:1005000082E18F931F9277D51F9258A95F931F9214
:100510006CA56F938BE592E09F938F9382E08F930E
:1005200081E08F9368D50FB6F894DEBF0FBECDBFC4
:1005300099A9911111C01F929F9281E692E09F9319
:100540008F931F9281E08F9356D50F900F900F904D
:100550000F900F900F9011C01F92EEA5EF9381E6C0
:1005600092E09F938F931F9281E08F9344D50F90D9
:100570000F900F900F900F900F902AA93BA9121681
:1005800013060CF029C4839427C48AA99BA91816C2
:1005900019060CF483941414150444F423969FADA7
:1005A0002397911103C0EDA5EF5FEDA7FDA5F430F2
:1005B00008F01DA62DA5211113C01F9281E08F9375
:1005C0001F9282E08F9324E432E03F932F931F9297
:1005D0008F9311D50FB6F894DEBF0FBECDBF35C0D7
:1005E0009DA5913069F48DE792E09F938F931F92C0
:1005F00082E08F9300D50F900F900F900F9025C041
:10060000EDA5E23089F41F9282E08F9327E432E077
:100610003F932F931F928F93EED40F900F900F90D4
:100620000F900F900F9011C01F9281E08F9387E47D
:1006300092E09F938F931F9282E08F93DCD40F9070
:100640000F900F900F900F900F901F922496FFAD78
:100650002497FF931F9222962FAD22972F938AE41F
:1006600092E09F938F931F9281E08F93C4D40FB633
:10067000F894DEBF0FBECDBF23969FAD2397913078
:1006800091F018F0923079F1A7C3161417040CF00A
:10069000A3C32396EFAD2397EF5F2396EFAF239786
:1006A0002224239499C3141415043CF42296FFAD1C
:1006B0002297FF5F2296FFAF229722962FAD2297B7
:1006C000283118F022961FAE2297161417040CF04A
:1006D00083C323963FAD23973F5F23963FAF239776
:1006E0002224239479C3141415043CF424965FAD9A
:1006F00024975F5F24965FAF249724966FAD24976D
:100700006C3308F02BC368C32596EFAD25978E2F69
:1007100090E08730910508F07BC1FC018827EE58F6
:10072000FF4F8F4FB3C61F922796FFAD2797FF93BA
:100730001F9229962FAD29972F931F922F963FAD89
:100740002F973F9387E592E09F938F931F9281E0CD
:100750008F9351D40FB6F894DEBF0FBECDBF1414E3
:1007600015040CF418C154C11F9227969FAD27970A
:100770009F931F922996EFAD2997EF931F922F9683
:10078000FFAD2F97FF9387E592E09F938F931F9282
:1007900081E08F9330D438D3ADA8BEA8CFA8D8AC11
:1007A000E9ACFAAC0BAD1CAD85D60FB6F894DEBF44
:1007B0000FBECDBFA9E087D689F080F02796FFADA8
:1007C0002797FF5F2796FFAF27971ED32DAB3EAB32
:1007D0004FAB58AF69AF7AAF8BAF9CAF27962FADB9
:1007E0002797243650F029963FAD29973F5F2996E9
:1007F0003FAF299727961FAE279729965FAD299778
:100800005C3350F02F966FAD2F976F5F2F966FAFC1
:100810002F9729961FAE29971414150424F482E00B
:1008200025968FAF259727969FAD2797933671F41E
:100830002996EFAD2997EB3349F42F96FFAD2F970B
:10084000FB3321F423E025962FAF259716141704C8
:100850000CF4A6C0DDC01414150424F431E0259670
:100860003FAF2597161417040CF4A1C0D1C016147D
:1008700017040CF4ABC0CCC0C7D2ADA8BEA8CFA89B
:10088000D8ACE9ACFAAC0BAD1CAD14D6A9E01BD6C4
:1008900089F080F027965FAD27975F5F27965FAF5F
:1008A0002797B2D22DAB3EAB4FAB58AF69AF7AAF03
:1008B0008BAF9CAF27966FAD2797643650F0299683
:1008C0008FAD29978F5F29968FAF299727961FAEF7
:1008D000279729969FAD29979C3350F02F96EFAD1F
:1008E0002F97EF5F2F96EFAF2F9729961FAE29977F
:1008F0001414150424F4F2E02596FFAF25972796EB
:100900002FAD2797233671F429963FAD29973B33B6
:1009100049F42F965FAD2F975B3321F463E0259662
:100920006FAF25971614170434F481E025968FAF26
:10093000259722242394141415040CF456C068C07F
:10094000161417040CF064C01F9227969FAD2797CA
:100950009F931F922996EFAD2997EF931F922F96A1
:10096000FFAD2F97FF9387E592E09F938F931F92A0
:1009700081E08F9340D30FB6F894DEBF0FBECDBF9A
:1009800036E025963FAF25972224239441C01614C4
:10099000170484F13DC051E025965FAF259738C01C
:1009A00064E025966FAF25972224239431C02596C5
:1009B0001FAE25972F961FAE2F9729961FAE29970A
:1009C00027961FAE27972224239422C025961FAE78
:1009D00025972F961FAE2F9729961FAE29972796FA
:1009E0001FAE27972224239413C085E025968FAF4E
:1009F00025970EC025961FAE25972F961FAE2F97D1
:100A000029961FAE299727961FAE27972224239455
:100A1000EAA9FBA91E161F060CF0DEC18394DCC1F7
:100A200086E692E09F938F9385E392E09F938F9366
:100A30001F921F92E0D20F900F900F900F900F9087
:100A40000F902696FFAD2697F1113CC021962FAD51
:100A50002197E22FF0E0EE0FFF1F81E090E08C0F76
:100A60009D1FE80FF91F85858F9384858F9385E3FC
:100A700092E09F938F9383E08F931F92BCD20F904D
:100A80000F900F900F900F900F9021969FAD219790
:100A90002E969FAF2E97EFA52D96EFAF2D97FBA526
:100AA0002C96FFAF2C9728969FAE28972CA52B96B7
:100AB0002FAF2B9738A92A963FAF2A9751E0269659
:100AC0005FAF26976FAD6330E0F41F922A968FAD2B
:100AD0002A978F931F922B969FAD2B979F931F92D0
:100AE0002896EFAD2897EF9387E592E09F938F9339
:100AF0001F9281E08F937FD20FB6F894DEBF0FBEB6
:100B0000CDBF3FAD323009F44CC028F4332369F037
:100B1000313061F127C15FAD543009F48EC008F463
:100B20005BC0553009F4BAC01DC18AA99BA918162B
:100B300019060CF4812C161417042CF49FAD9F5F3A
:100B40009FAF22242394141415043CF42A96EFAD8D
:100B50002A97EF5F2A96EFAF2A972A96FFAD2A973A
:100B6000FC3308F002C125E02EAF36C1161417047D
:100B70002CF43FAD3F5F3FAF22242394141415049F
:100B80003CF428965FAD28975F5F28965FAF289763
:100B900028966FAD2897683108F0EDC085E08EAFDC
:100BA0001BC1161417042CF49FAD9F5F9FAF222426
:100BB0002394141415043CF42B96EFAD2B97EF5FA0
:100BC0002B96EFAF2B972B96FFAD2B97FC3308F0AE
:100BD000D8C025E02EAF00C1161417042CF43FAD89
:100BE0003F5F3FAF22242394141415043CF42C9649
:100BF0005FAD2C975F5F2C965FAF2C972C966FADF7
:100C00002C976D3020F081E02C968FAF2C971F929F
:100C10002C969FAD2C979F9389E692E09F938F939C
:100C20001F9281E08F93E7D10F900F900F900F905C
:100C30000F900F90E5E0EEAFCFC0161417042CF420
:100C4000FFADFF5FFFAF22242394141415043CF47E
:100C50002D962FAD2D972F5F2D962FAF2D972D967B
:100C60003FAD2D97303220F051E02D965FAF2D979C
:100C70001F922D966FAD2D976F9383E792E09F9310
:100C80008F9382E18F931F92B6D10F900F900F90A8
:100C90000F900F900F9085E08EAF9EC01414150436
:100CA0003CF42E969FAD2E979F5F2E969FAF2E976A
:100CB0002E96EFAD2E97E73018F02E961FAE2E979A
:100CC0002E962FAD2E97E22FF0E0EE0FFF1F81E062
:100CD00090E08C0F9D1FE80FF91F85858F93848509
:100CE0008F9387E792E09F938F9383E08F931F9278
:100CF00082D10F900F900F900F900F900F90EAA954
:100D0000FBA91E161F060CF042C02896FFAD2897BF
:100D1000FC3008F43FC0FC50FEA72E962FAD2E9756
:100D200021962FAF21972C963FAD2C973BA72D9660
:100D30005FAD2D975FA72A966FAD2A9768AB2B966C
:100D40008FAD2B978CA728969FAC28971FAE95E068
:100D50009EAF26961FAE2697812C3EC024961FAECE
:100D600024973AC0E5E0EEAF37C02A961FAE2A9727
:100D7000F5E0FEAF31C028961FAE289725E02EAFD4
:100D80002BC02B961FAE2B9735E03EAF25C055E00C
:100D90005EAF22C02E966FAD2E9721966FAF219732
:100DA0002C968FAD2C978BA72D969FAD2D979FA737
:100DB0002A96EFAD2A97E8AB2B96FFAD2B97FCA7B1
:100DC00028962FAD28972EA7922E1FAE35E03EAF66
:100DD00026961FAE2697812C222019F08FEF79D00E
:100DE0002CCA80E076D029CA82B995B9089580913D
:100DF0000901089583E084BD8BE085BD81E0809387
:100E00006E0089EF87BD089520910F033091100384
:100E100040911103509112036091130370911403D8
:100E20008091150390911603089511BA10BA10928B
:100E300008011092070180E480937C008FE080938A
:100E40007E008FEF80937D0087E880937A00109278
:100E50007B0008952FEF33E0F901E81BF90BC9017E
:100E6000861B970B241B350BF093A900E093A80079
:100E70009093AB008093AA003093AD002093AC0018
:100E800008958EEF8093A0008BE18093A10083E012
:100E90008093A7008FEF8093A60040E050E060E0D1
:100EA00070E080E090E0D6CF0895882321F084B3ED
:100EB000816084BB089584B38E7F84BB08958823AA
:100EC00021F084B3826084BB089584B38D7F84BB9A
:100ED0000895811104C084B58F7D84BD089594B5B3
:100EE000906294BD88BD0895EF92FF920F931F9377
:100EF000CF93DF937C01EB0181E0D7DF00E010E0CE
:100F000006C080E0DCDF81E0DADF0F5F1F4F0530D5
:100F10001105B8F380E0C9DF80E0D1DF81E0CFDFE9
:100F200083E4E816F10419F480E0BFDF02C081E039
:100F3000BCDF80E0C4DF81E0C2DF80E0B6DF80E0BC
:100F4000BEDF81E0BCDF00E010E011C080E0B7DF71
:100F5000C0FF03C081E0A9DF02C080E0A6DFD69514
:100F6000C79580E0ACDF81E0AADF0F5F1F4F043040
:100F7000110560F380E099DF00E010E006C080E03A
:100F80009EDF81E09CDF0F5F1F4F04301105B8F337
:100F900000E010E011C080E092DFC0FF03C081E0FC
:100FA00084DF02C080E081DFD695C79580E087DFCF
:100FB00081E085DF0F5F1F4F0430110560F380E093
:100FC00074DFC0E0D0E005C080E079DF81E077DF4A
:100FD0002196C430D105C0F381E067DF87EC90E053
:100FE0000197F1F700C00000DF91CF911F910F91A1
:100FF000FF90EF9008951F93CF93DF93CDB7DEB7A7
:1010000065970FB6F894DEBF0FBECDBF9E01205E80
:101010003F4F4E8D5F8D65E170E0CE0101965FD24E
:101020006D8D8C8D90E2899F600D1124606870E059
:1010300083E490E059DF10E005C01F5F70E084E4B6
:1010400090E052DFE1E0F0E0EC0FFD1FE10FF11D59
:1010500060816111F2CF65960FB6F894DEBF0FBEC6
:10106000CDBFDF91CF911F9108950F931F93CF9321
:101070009FEF980F9730D8F48B01682F70E0660FC0
:10108000771F660F771F660F771F606483E490E019
:101090002BDFC0E009C0F801EC0FF11D608170E0AA
:1010A00084E490E021DFCF5FC830A8F301C0FFCF18
:1010B000CF911F910F91089561E070E083E490E07B
:1010C00013DF8FE39FE10197F1F700C000008FE786
:1010D00092E09F938F931F921F928DDF0F900F903E
:1010E0000F900F90089581E0EADE80E0DEDE64E399
:1010F00070E083E490E0F8DE69E070E083E490E083
:10110000F3DE60E370E083E490E0EEDE6CE070E03C
:1011100083E490E0E9DED0DF67E070E083E490E014
:10112000E3DE80E0D6CE0895FF920F931F93CF9316
:10113000DF93C82F85B785BF12B88FEF81B915B877
:1011400084B988B917B88BB91AB88EB91DB89EB1D1
:101150009B7F9EB911BA10BA94E094BB93B393608D
:1011600093BB93B3906293BB97EC9093020198E387
:1011700090930101109205018093040110920801DF
:10118000109207018CE380930B0110920A0178946E
:1011900031DEA9DF4ADE75DECC2309F4A3C08FEF70
:1011A00098DE40E050E06FEF73E080E090E052DEC8
:1011B00084EB92E09F938F931F921F921CDF89EC28
:1011C00092E09F938F931F9281E08F9314DF8FE9BA
:1011D00092E09F938F931F9282E08F930CDF8EEDAE
:1011E00092E09F938F931F9283E08F9304DF8DB7DC
:1011F0009EB740960FB6F8949EBF0FBE8DBFFF24DA
:10120000F394C0E010E001E0D0E0002351F080E072
:1012100090E80D2E02C0969587950A94E2F7E4DDDA
:1012200009C081E090E00D2E02C0880F991F0A943A
:10123000E2F7DADDDF5FD13128F081E0011180E0F3
:10124000082FD0E0FF2011F0CE5F01C0C2508C2FDC
:1012500040DECE3F09F4F12CC83711F4FF24F3949B
:10126000111117C0C4DD837CA1F040E050E066E2BC
:1012700072E08FEF93E0EEDD83EF92E09F938F9328
:101280001F9283E08F93B7DE0F900F900F900F9017
:1012900011E0112319F0ABDD837C39F08FEF9CE76F
:1012A0000197F1F700C00000B0CF06DF80E011DE4B
:1012B00080E090E099DD40E050E060E070E080E0A8
:1012C00090E0C8DD10920F031092100310921103EA
:1012D000109212031092130310921403109215032C
:1012E00010921603DF91CF911F910F91FF900895F7
:1012F000CF93DF93CDB7DEB728970FB6F894DEBF54
:101300000FBECDBF88E0EAE2F2E0DE011196019067
:101310000D928A95E1F7E5E0F1E080818F7B808393
:10132000E0910C03F0910D0381E090E08C0F9D1F84
:10133000E80FF91F808190E090930B0380930A03DC
:1013400080E026C0E7E3F0E0E81BF109EE0FFF1FA5
:10135000E85EFC4F4081518120910A0330910B03DC
:1013600024233523232B31F0E5E0F1E090819062D6
:10137000908305C0E5E0F1E090819F7D9083E5E0FA
:10138000F1E090819061908390819F7E90838F5F48
:101390008833C0F2E5E0F1E08081877F808380813F
:1013A000887F8083908180910C03892B808380814A
:1013B0008064808380818860808380910C03909119
:1013C0000D038730910530F4019690930D038093BF
:1013D0000C0307C010920D0310920C0381E0809360
:1013E0000E0328960FB6F894DEBF0FBECDBFDF9177
:1013F000CF9108951F920F920FB60F9211240BB642
:101400000F922F933F934F935F936F937F938F939D
:101410009F93AF93BF93EF93FF9320910F0330916E
:1014200010034091110350911203609113037091C6
:1014300014038091150390911603A1E02FD02093FF
:101440000F033093100340931103509312036093E2
:1014500013037093140380931503909316038091E4
:101460001703811145DFFF91EF91BF91AF919F91DC
:101470008F917F916F915F914F913F912F910F903D
:101480000BBE0F900FBE0F901F901895EE0FFF1F11
:10149000881F8BBF0790F691E02D19940024A7FDBB
:1014A00000942A0F301D401D501D601D701D801DB1
:1014B000901D08952A193B094C095D096E097F09A1
:1014C000800B910B08950024A7FD00942A17300586
:1014D00040055005600570058005900508950F933F
:1014E0001F93CF93DF93CDB7DEB72E970FB6F89447
:1014F000DEBF0FBECDBF8C01FA0186E08C831A835C
:10150000098377FF02C060E070E8CB0101979E83FA
:101510008D83A901BF01CE01019619D04D815E8155
:1015200057FD0AC02F813885421753070CF49A01E2
:10153000F801E20FF31F10822E960FB6F894DEBF6B
:101540000FBECDBFDF91CF911F910F9108952F92C4
:101550003F924F925F926F927F928F929F92AF9243
:10156000BF92CF92DF92EF92FF920F931F93CF9390
:10157000DF93CDB7DEB72B970FB6F894DEBF0FBE63
:10158000CDBF6C017B018A01FC0117821682838129
:1015900081FFBFC1CE0101963C01F6019381F701A5
:1015A00093FD859193FF81917F01882309F4ADC15B
:1015B000853239F493FD859193FF81917F018532C6
:1015C00021F4B60190E0D6D1E8CF912C212C312C1A
:1015D000FFE1F315D8F08B3279F038F4803279F0EE
:1015E0008332A1F4232D20611DC08D3261F0803340
:1015F00069F4232D216016C0832D8260382EE32DDF
:10160000E4603E2E2AC0F32DF8601DC037FC2DC0CB
:1016100020ED280F2A3040F08E32B9F436FC75C127
:10162000232D2064322E19C036FE06C08AE0989E13
:10163000200D1124922E11C0EAE02E9E200D1124BF
:10164000222EF32DF0623F2E08C08C3621F4832D1C
:101650008068382E02C0883641F4F70193FD8591E9
:1016600093FF81917F018111B3CF982F9F7D955476
:10167000933028F40C5F1F4F9FE399830DC083368E
:1016800031F0833771F0833509F055C020C0F8017F
:10169000808189830E5F1F4F88248394912C53018E
:1016A00012C02801F2E04F0E511CF801A080B18059
:1016B00036FE03C0692D70E002C06FEF7FEFC501F9
:1016C0004ED14C018201F32DFF773F2E15C028012A
:1016D00022E0420E511CF801A080B18036FE03C00A
:1016E000692D70E002C06FEF7FEFC5012DD14C0175
:1016F000F32DF0683F2E820133FC19C0822D90E05B
:1017000088169906A0F4B60180E290E033D12A94BD
:10171000F5CFF50137FC859137FE81915F01B60168
:1017200090E028D121102A9421E0821A9108811496
:10173000910479F7E1C0843611F0893639F5F80162
:1017400037FE07C060817181828193810C5F1F4FDA
:1017500008C060817181072E000C880B990B0E5F09
:101760001F4FF32DFF763F2E97FF09C09095809570
:10177000709561957F4F8F4F9F4FF0683F2E2AE005
:1017800030E0A30133D1882E861844C0853731F468
:10179000232D2F7EB22E2AE030E025C0932D997F95
:1017A000B92E8F36C1F018F4883579F0AEC0803785
:1017B00019F0883721F0A9C0E92FE061BE2EB4FEF0
:1017C0000DC0FB2DF460BF2E09C034FE0AC0292FC6
:1017D0002660B22E06C028E030E005C020E130E0EF
:1017E00002C020E132E0F801B7FE07C060817181DC
:1017F000828193810C5F1F4F06C06081718180E000
:1018000090E00E5F1F4FA301F1D0882E8618FB2DAC
:10181000FF773F2E36FE0DC0232D2E7FA22E89147A
:1018200058F434FE0BC032FC09C0832D8E7EA82EE6
:1018300005C0B82CA32C03C0B82C01C0B92CA4FE41
:101840000FC0FE01E80DF11D8081803321F49A2D37
:10185000997EA92E09C0A2FE06C0B394B39404C019
:101860008A2D867809F0B394A3FC10C0A0FE06C0B0
:10187000B21480F4280C922C9B180DC0B21458F4AA
:10188000B60180E290E076D0B394F8CFB21418F4A9
:101890002B1802C0982C212CA4FE0FC0B60180E3A7
:1018A00090E068D0A2FE16C0A1FC03C088E790E0DB
:1018B00002C088E590E0B6010CC08A2D867851F010
:1018C000A1FE02C08BE201C080E2A7FC8DE2B6015E
:1018D00090E050D0891430F4B60180E390E04AD013
:1018E0009A94F8CF8A94F301E80DF11D8081B60136
:1018F00090E040D08110F6CF222009F44ECEB60100
:1019000080E290E037D02A94F7CFF6018681978164
:1019100002C08FEF9FEF2B960FB6F894DEBF0FBE7D
:10192000CDBFDF91CF911F910F91FF90EF90DF908E
:10193000CF90BF90AF909F908F907F906F905F906F
:101940004F903F902F900895FC010590615070409A
:101950000110D8F7809590958E0F9F1F0895FC0178
:101960006150704001900110D8F7809590958E0FCE
:101970009F1F08950F931F93CF93DF93FB01238144
:1019800021FD03C08FEF9FEF2CC022FF16C04681C0
:101990005781248135814217530744F4A081B181D6
:1019A0009D012F5F3F4F318320838C9326813781A8
:1019B0002F5F3F4F3783268314C08B01EC01FB015F
:1019C0000084F185E02D1995892BE1F6D801169652
:1019D0008D919C911797019617969C938E931697CD
:1019E000CE01DF91CF911F910F910895FA01AA279F
:1019F000283051F1203181F1E8946F936E7F6E5F52
:101A00007F4F8F4F9F4FAF4FB1E03ED0B4E03CD0FF
:101A1000670F781F891F9A1FA11D680F791F8A1FE2
:101A2000911DA11D6A0F711D811D911DA11D20D049
:101A300009F468943F912AE0269F11243019305D03
:101A40003193DEF6CF010895462F4770405D4193F4
:101A5000B3E00FD0C9F7F6CF462F4F70405D4A3341
:101A600018F0495D31FD4052419302D0A9F7EACF09
:101A7000B4E0A6959795879577956795BA95C9F738
:101A800000976105710508959B01AC010A2E06942B
:101A90005795479537952795BA95C9F7620F731FE4
:0C1AA000841F951FA01D0895F894FFCF2F
:101AAC008102840287023E02380266028A028D029B
:101ABC0090029302960299029C02040E0E0E1F1FB6
:101ACC000400001515151515150001020408102049
:101ADC004080257320257300414C20202000535456
:101AEC0000257500256320256300253032753A25C5
:101AFC0030327520202000253032753A2530327571
:101B0C003A253032750053550025752020202020B1
:101B1C002020002575200025732020202020202047
:101B2C0000414D00504D003234004D4F00545500D3
:101B3C00574500544800465200534100534F002D66
:101B4C002D2D2D2D2D2D2D2D2D2D2D2D2D2D2D2DB9
:101B5C002D2D2D0020202020202075432D426F613B
:101B6C0072642020202020200041546D6567613272
:101B7C00353630206174203136204D487A00507251
:101B8C0065737320616E79206B657920746F207298
:101B9C00756E00202072656C6561736520616C6CDC
:0A1BAC00206B6579732020003A00D9
:00000001FF
