:1000000078C0000096C0000094C0000092C00000BC
:1000100090C000008EC000008CC000008AC00000AC
:1000200088C0000086C0000084C0000082C00000BC
:1000300080C000007EC000007CC000007AC00000CC
:1000400078C0000076C0000074C0000072C00000DC
:1000500070C000006EC000006CC00000F6C600005A
:1000600068C0000066C0000064C0000062C00000FC
:1000700060C000005EC000005CC000005AC000000C
:1000800058C0000056C0000054C0000052C000001C
:1000900050C000004EC000004CC000004AC000002C
:1000A00048C0000046C0000044C0000042C000003C
:1000B00040C000003EC000003CC000003AC000004C
:1000C00038C0000036C0000034C0000032C000005C
:1000D00030C000002EC000002CC000002AC000006C
:1000E00028C0000002021D0270027A027F02C202D2
:1000F000E10211241FBECFEFD1E2DEBFCDBF00E091
:100100000CBF12E0A0E0B2E0E2E0F5E100E00BBFDE
:1001100002C007900D92A83EB107D9F723E0A8EEE0
:10012000B2E001C01D92A636B207E1F703D00C94ED
:100130007F0A66CFCF93DF93CDB7DEB7E8970FB6D0
:10014000F894DEBF0FBECDBF80E019D58CE0E0E0B3
:10015000F2E0DE01119601900D928A95E1F78EE0B2
:10016000ECE0F2E0DE011D9601900D928A95E1F738
:1001700018AE1FAA21E02EAB1CAA1BAA1AAA1DA604
:100180001EA61DAA19AA18AA212C80E01BA21CA633
:100190001FA631E03F8F91E09C8F18A21B8E1E8E10
:1001A0001D8E312C712C1CA21DA21EA21FA218A6EE
:1001B00019A61AA61BA601C0862D609009018625E6
:1001C0008621982F9078492E512C80FB882480F826
:1001D000912C8270E82FF0E0FAA3E9A367D3ACA0DA
:1001E000BDA0CEA0DFA0E8A4F9A40AA51BA58DD6CA
:1001F000273E334041055105610571058105910593
:1002000069F060F028A12F5F28A350D32CA33DA351
:100210004EA35FA368A779A78AA79BA73B8D3C3312
:1002200038F08E8D8F5F8E8F9D8D9F5F9D8F1B8E83
:10023000E8A1EC3320F0FB8DFF5FFB8F18A22E8D21
:100240002C3028F081E03BA138273BA31E8E8D8DFA
:10025000883120F09C8D9F5F9C8F1D8EEC8DE0324D
:1002600028F0FF8DFF5FFF8F21E02C8F3F8D3D3009
:1002700010F081E08F8F1414150434F4711004C051
:1002800081E0311080E0382E332021F09BA19923AA
:1002900021F004C0E2E0ECA701C01CA61814190468
:1002A00014F481E02826711020C082E292E09F932E
:1002B0008F932CA5E22FF0E0EE0FFF1F81E090E07E
:1002C0008C0F9D1FE80FF91F81818F9380818F9381
:1002D00085E292E09F938F931F921F92DED30FB619
:1002E000F894DEBF0FBECDBF1DC0F1E07F120CC081
:1002F0008BE292E09F938F931F921F92CED30F9029
:100300000F900F900F900EC022E072120BC081E38D
:1003100092E09F938F931F921F92BFD30F900F90E5
:100320000F900F9031E0731609F457C0731648F020
:1003300082E0781609F459C093E0791609F46CC18B
:100340009DC21F92EC8DEF9384E392E09F938F9375
:1003500082E18F931F92A1D31F92F8A1FF931F9266
:100360002B8D2F938BE392E09F938F9382E08F935B
:1003700081E08F9392D30FB6F894DEBF0FBECDBF4E
:10038000311012C01F929D8D9F9381E492E09F9344
:100390008F931F9281E08F9380D30F900F900F90D7
:1003A0000F900F900F9011C01F92EE8DEF9381E48C
:1003B00092E09F938F931F9281E08F936ED30F9063
:1003C0000F900F900F900F900F9029A13AA1121645
:1003D00013060CF053C2739451C289A19AA1181646
:1003E00019060CF04BC2739449C2EEA58E2F90E013
:1003F0008730910508F008C1FC018827EE58FF4FAF
:100400008F4F6FC51F92F8A9FF931F9229A92F93B1
:100410001F923DA93F9387E392E09F938F931F9292
:1004200081E08F933AD30FB6F894DEBF0FBECDBFF5
:10043000141415040CF4C9C0E7C01F9298A99F9327
:100440001F92E9A9EF931F92FDA9FF9387E392E022
:100450009F938F931F9281E08F931FD327D2ACA0DD
:10046000BDA0CEA0DFA0E8A4F9A40AA51BA54DD588
:100470000FB6F894DEBF0FBECDBFA9E04FD569F02F
:1004800060F0F8A9FF5FF8AB11D22CA33DA34EA3F7
:100490005FA368A779A78AA79BA728A9243620F07D
:1004A00039A93F5F39AB18AA89A98C3320F09DA9DF
:1004B0009F5F9DAB19AA1414150414F4E2E0EEA793
:1004C000F8A9F33641F429A92B3329F43DA93B338C
:1004D00011F483E08EA7181419040CF479C094C0A9
:1004E0001414150414F491E09EA7181419040CF4C4
:1004F00074C08AC0181419040CF476C085C0D6D113
:10050000ACA0BDA0CEA0DFA0E8A4F9A40AA51BA5BD
:10051000FCD4A9E003D569F060F0E8A9EF5FE8AB8F
:10052000C5D12CA33DA34EA35FA368A779A78AA733
:100530009BA7F8A9F43620F029A92F5F29AB18AAA8
:1005400039A93C3320F08DA98F5F8DAB19AA141403
:10055000150414F492E09EA7E8A9E33641F4F9A942
:10056000FB3329F42DA92B3311F433E03EA71814E3
:10057000190424F481E08EA7222423941414150472
:10058000D4F142C0181419040CF03EC01F9298A96F
:100590009F931F92E9A9EF931F92FDA9FF9387E311
:1005A00092E09F938F931F9281E08F9376D20FB644
:1005B000F894DEBF0FBECDBF36E03EA722242394C1
:1005C00023C018141904D4F01FC081E08EA71CC0EA
:1005D00094E09EA72224239417C01EA61DAA19AA40
:1005E00018AA2224239410C01EA61DAA19AA18AA6C
:1005F0002224239409C0E5E0EEA706C01EA61DAA8A
:1006000019AA18AA2224239429A13AA11216130682
:100610000CF034C1739432C186E492E09F938F93BF
:1006200088E292E09F938F931F921F9236D20F9091
:100630000F900F900F900F900F903FA531111FC09A
:1006400082E292E09F938F9388E292E09F938F9350
:1006500083E08F931F9221D20F900F900F900F90F5
:100660000F900F908C8D8FAB9F8D9EABED8DECAB73
:10067000FB8DFBAB28A12AAB18AE31E03FA78DA5BF
:100680008330B0F41F929AA99F931F92EBA9EF9326
:100690001F92FCA9FF9387E392E09F938F931F9291
:1006A00081E08F93FAD10FB6F894DEBF0FBECDBFB5
:1006B0003DA53230D1F128F4332369F0313001F116
:1006C000C6C08DA5843009F46CC008F443C08530E1
:1006D00009F48EC0BCC0181419042CF49DA59F5FAA
:1006E0009DA722242394141415041CF4EAA9EF5F97
:1006F000EAABFAA9FC3308F0ADC025E02CA7BEC0D8
:10070000181419042CF43DA53F5F3DA7222423941F
:10071000141415041CF48CA98F5F8CAB9CA9983120
:1007200008F09CC0E5E0ECA7A9C0181419042CF44B
:10073000FDA5FF5FFDA722242394141415041CF4C7
:100740002BA92F5F2BAB3BA93C3308F08BC085E076
:100750008CA794C0181419042CF49DA59F5F9DA725
:1007600022242394141415041CF4EEA9EF5FEEABBD
:10077000FEA9FD3010F021E02EAB1F923EA93F9361
:1007800089E492E09F938F931F9281E08F9385D1AC
:100790000F900F900F900F900F900F9085E08CA707
:1007A0006DC0181419042CF49DA59F5F9DA72224E9
:1007B0002394141415041CF4EFA9EF5FEFABFFA909
:1007C000F03210F021E02FAB1F923FA93F9383E559
:1007D00092E09F938F9382E18F931F925ED10F904F
:1007E0000F900F900F900F900F9085E08CA746C050
:1007F000141415041CF498AD9F5F98AFE8ADE73072
:1008000008F018AE28ADE22FF0E0EE0FFF1F81E0F8
:1008100090E08C0F9D1FE80FF91F85858F938485CD
:100820008F9387E592E09F938F9383E08F931F923E
:1008300034D10F900F900F900F900F900F90E9A16F
:10084000FAA11E161F0694F0F5E0FCA717C025E0DC
:100850002CA714C01AAA35E03CA710C01CAA85E03A
:100860008CA70CC01BAA95E09CA708C0EAA9E8A326
:10087000FBA9FB8F25E02CA71FA6712C222019F0C5
:100880008FEF79D099CC80E076D096CC82B995B9AB
:10089000089580910901089583E084BD8BE085BDB2
:1008A00081E080936E0089EF87BD08952091ED026D
:1008B0003091EE024091EF025091F0026091F1020E
:1008C0007091F2028091F3029091F402089511BAAE
:1008D00010BA109208011092070180E480937C0006
:1008E0008FE080937E008FEF80937D0087E8809378
:1008F0007A0010927B0008952FEF33E0F901E81B96
:10090000F90BC901861B970B241B350BF093A9002B
:10091000E093A8009093AB008093AA003093AD00C1
:100920002093AC0008958EEF8093A0008BE180931C
:10093000A10083E08093A7008FEF8093A60040E0A2
:1009400050E060E070E080E090E0D6CF089588232A
:1009500021F084B3816084BB089584B38E7F84BB0F
:100960000895882321F084B3826084BB089584B302
:100970008D7F84BB0895811104C084B58F7D84BDB3
:10098000089594B5906294BD88BD0895EF92FF924A
:100990000F931F93CF93DF937C01EB0181E0D7DFAF
:1009A00000E010E006C080E0DCDF81E0DADF0F5F0E
:1009B0001F4F05301105B8F380E0C9DF80E0D1DFBB
:1009C00081E0CFDF83E4E816F10419F480E0BFDFB3
:1009D00002C081E0BCDF80E0C4DF81E0C2DF80E0F4
:1009E000B6DF80E0BEDF81E0BCDF00E010E011C0D8
:1009F00080E0B7DFC0FF03C081E0A9DF02C080E074
:100A0000A6DFD695C79580E0ACDF81E0AADF0F5F57
:100A10001F4F0430110560F380E099DF00E010E023
:100A200006C080E09EDF81E09CDF0F5F1F4F043037
:100A30001105B8F300E010E011C080E092DFC0FFC4
:100A400003C081E084DF02C080E081DFD695C795D6
:100A500080E087DF81E085DF0F5F1F4F04301105E5
:100A600060F380E074DFC0E0D0E005C080E079DFB3
:100A700081E077DF2196C430D105C0F381E067DFE4
:100A800087EC90E00197F1F700C00000DF91CF9173
:100A90001F910F91FF90EF9008951F93CF93DF93D5
:100AA000CDB7DEB765970FB6F894DEBF0FBECDBFEA
:100AB0009E01205E3F4F4E8D5F8D65E170E0CE015F
:100AC000019638D26D8D8C8D90E2899F600D112436
:100AD000606870E083E490E059DF10E005C01F5FBC
:100AE00070E084E490E052DFE1E0F0E0EC0FFD1F05
:100AF000E10FF11D60816111F2CF65960FB6F89498
:100B0000DEBF0FBECDBFDF91CF911F91089561E091
:100B100070E083E490E03ADF8FE39FE10197F1F723
:100B200000C000008FE592E09F938F931F921F9269
:100B3000B4DF0F900F900F900F90089581E011DFB8
:100B400080E005DF64E370E083E490E01FDF69E0AC
:100B500070E083E490E01ADF60E370E083E490E00B
:100B600015DF6CE070E083E490E010DFD0DF67E039
:100B700070E083E490E00ADF80E0FDCE0895FF920C
:100B80000F931F93CF93DF93C82F85B785BF12B8FC
:100B90008FEF81B915B884B988B917B88BB91AB86D
:100BA0008EB91DB89EB19B7F9EB911BA10BA94E060
:100BB00094BB93B3936093BB93B3906293BB97EC56
:100BC0009093020198E390930101109205018093A4
:100BD000040110920801109207018CE380930B012D
:100BE00010920A01789458DEA9DF71DE9CDECC23D6
:100BF00009F4A3C08FEFBFDE40E050E06FEF73E079
:100C000080E090E079DE81E992E09F938F931F92DC
:100C10001F9243DF86EA92E09F938F931F9281E0B9
:100C20008F933BDF8CE792E09F938F931F9282E03C
:100C30008F9333DF8BEB92E09F938F931F9283E030
:100C40008F932BDF8DB79EB740960FB6F8949EBF5B
:100C50000FBE8DBFFF24F394C0E010E001E0D0E0B0
:100C6000002351F080E090E80D2E02C09695879504
:100C70000A94E2F70BDE09C081E090E00D2E02C07D
:100C8000880F991F0A94E2F701DEDF5FD13128F067
:100C900081E0011180E0082FD0E0FF2011F0CE5F4D
:100CA00001C0C2508C2F67DECE3F09F4F12CC8374B
:100CB00011F4FF24F394111117C0EBDD837CA1F034
:100CC00040E050E066E272E08FEF93E015DE80EDE9
:100CD00092E09F938F931F9283E08F93DEDE0F90BD
:100CE0000F900F900F9011E0112319F0D2DD837C4B
:100CF00039F08FEF9CE70197F1F700C00000B0CF0B
:100D000006DF80E038DE80E090E0C0DD40E050E0CB
:100D100060E070E080E090E0EFDD1092ED02109274
:100D2000EE021092EF021092F0021092F102109275
:100D3000F2021092F3021092F402DF91CF911F9110
:100D40000F91FF900895CF93DF93CDB7DEB728972B
:100D50000FB6F894DEBF0FBECDBF88E0EAE1F2E047
:100D6000DE01119601900D928A95E1F7E5E0F1E040
:100D700080818F7B8083E091EA02F091EB0281E039
:100D800090E08C0F9D1FE80FF91F808190E09093F9
:100D9000E9028093E80280E026C0E7E3F0E0E81B88
:100DA000F109EE0FFF1FEA50FD4F40815181209164
:100DB000E8023091E90224233523232B31F0E5E0CA
:100DC000F1E090819062908305C0E5E0F1E09081D0
:100DD0009F7D9083E5E0F1E0908190619083908128
:100DE0009F7E90838F5F8833C0F2E5E0F1E08081E1
:100DF000877F80838081887F808390818091EA02D1
:100E0000892B808380818064808380818860808357
:100E10008091EA029091EB028730910530F40196BF
:100E20009093EB028093EA0207C01092EB021092BB
:100E3000EA0281E08093EC0228960FB6F894DEBFB8
:100E40000FBECDBFDF91CF9108951F920F920FB6C5
:100E50000F9211240BB60F922F933F934F935F93F2
:100E60006F937F938F939F93AF93BF93EF93FF9372
:100E70002091ED023091EE024091EF025091F0028C
:100E80006091F1027091F2028091F3029091F4026C
:100E9000A1E02FD02093ED023093EE024093EF02B9
:100EA0005093F0026093F1027093F2028093F30288
:100EB0009093F4028091F502811145DFFF91EF914B
:100EC000BF91AF919F918F917F916F915F914F9162
:100ED0003F912F910F900BBE0F900FBE0F901F9060
:100EE0001895EE0FFF1F881F8BBF0790F691E02D1E
:100EF00019940024A7FD00942A0F301D401D501D99
:100F0000601D701D801D901D08952A193B094C0914
:100F10005D096E097F09800B910B08950024A7FDE0
:100F200000942A17300540055005600570058005BE
:100F3000900508950F931F93CF93DF93CDB7DEB73E
:100F40002E970FB6F894DEBF0FBECDBF8C01FA010D
:100F500086E08C831A83098377FF02C060E070E823
:100F6000CB0101979E838D83A901BF01CE0101961C
:100F700019D04D815E8157FD0AC02F8138854217F7
:100F800053070CF49A01F801E20FF31F10822E961A
:100F90000FB6F894DEBF0FBECDBFDF91CF911F918A
:100FA0000F9108952F923F924F925F926F927F928E
:100FB0008F929F92AF92BF92CF92DF92EF92FF9269
:100FC0000F931F93CF93DF93CDB7DEB72B970FB659
:100FD000F894DEBF0FBECDBF6C017B018A01FC011E
:100FE00017821682838181FFBFC1CE0101963C0129
:100FF000F6019381F70193FD859193FF81917F0124
:10100000882309F4ADC1853239F493FD859193FFAE
:1010100081917F01853221F4B60190E0D6D1E8CFED
:10102000912C212C312CFFE1F315D8F08B3279F083
:1010300038F4803279F08332A1F4232D20611DC071
:101040008D3261F0803369F4232D216016C0832D29
:101050008260382EE32DE4603E2E2AC0F32DF86026
:101060001DC037FC2DC020ED280F2A3040F08E32F5
:10107000B9F436FC75C1232D2064322E19C036FE1A
:1010800006C08AE0989E200D1124922E11C0EAE03D
:101090002E9E200D1124222EF32DF0623F2E08C02B
:1010A0008C3621F4832D8068382E02C0883641F4B6
:1010B000F70193FD859193FF81917F018111B3CF5A
:1010C000982F9F7D9554933028F40C5F1F4F9FE31A
:1010D00099830DC0833631F0833771F0833509F081
:1010E00055C020C0F801808189830E5F1F4F88247E
:1010F0008394912C530112C02801F2E04F0E511C31
:10110000F801A080B18036FE03C0692D70E002C0F6
:101110006FEF7FEFC5014ED14C018201F32DFF77B8
:101120003F2E15C0280122E0420E511CF801A0807C
:10113000B18036FE03C0692D70E002C06FEF7FEF13
:10114000C5012DD14C01F32DF0683F2E820133FCF7
:1011500019C0822D90E088169906A0F4B60180E2AD
:1011600090E033D12A94F5CFF50137FC859137FE15
:1011700081915F01B60190E028D121102A9421E0ED
:10118000821A91088114910479F7E1C0843611F034
:10119000893639F5F80137FE07C060817181828197
:1011A00093810C5F1F4F08C060817181072E000C76
:1011B000880B990B0E5F1F4FF32DFF763F2E97FF85
:1011C00009C090958095709561957F4F8F4F9F4F87
:1011D000F0683F2E2AE030E0A30133D1882E861834
:1011E00044C0853731F4232D2F7EB22E2AE030E023
:1011F00025C0932D997FB92E8F36C1F018F488350C
:1012000079F0AEC0803719F0883721F0A9C0E92FF6
:10121000E061BE2EB4FE0DC0FB2DF460BF2E09C0F0
:1012200034FE0AC0292F2660B22E06C028E030E026
:1012300005C020E130E002C020E132E0F801B7FE55
:1012400007C060817181828193810C5F1F4F06C04E
:101250006081718180E090E00E5F1F4FA301F1D0AB
:10126000882E8618FB2DFF773F2E36FE0DC0232DCE
:101270002E7FA22E891458F434FE0BC032FC09C014
:10128000832D8E7EA82E05C0B82CA32C03C0B82CAD
:1012900001C0B92CA4FE0FC0FE01E80DF11D808134
:1012A000803321F49A2D997EA92E09C0A2FE06C092
:1012B000B394B39404C08A2D867809F0B394A3FC48
:1012C00010C0A0FE06C0B21480F4280C922C9B180B
:1012D0000DC0B21458F4B60180E290E076D0B39419
:1012E000F8CFB21418F42B1802C0982C212CA4FEAD
:1012F0000FC0B60180E390E068D0A2FE16C0A1FC4A
:1013000003C088E790E002C088E590E0B6010CC019
:101310008A2D867851F0A1FE02C08BE201C080E2E6
:10132000A7FC8DE2B60190E050D0891430F4B601EC
:1013300080E390E04AD09A94F8CF8A94F301E80DC4
:10134000F11D8081B60190E040D08110F6CF2220BF
:1013500009F44ECEB60180E290E037D02A94F7CF60
:10136000F6018681978102C08FEF9FEF2B960FB613
:10137000F894DEBF0FBECDBFDF91CF911F910F91CB
:10138000FF90EF90DF90CF90BF90AF909F908F90A5
:101390007F906F905F904F903F902F900895FC0149
:1013A0000590615070400110D8F7809590958E0F90
:1013B0009F1F0895FC016150704001900110D8F703
:1013C000809590958E0F9F1F08950F931F93CF9335
:1013D000DF93FB01238121FD03C08FEF9FEF2CC022
:1013E00022FF16C046815781248135814217530759
:1013F00044F4A081B1819D012F5F3F4F3183208351
:101400008C93268137812F5F3F4F3783268314C00B
:101410008B01EC01FB010084F185E02D1995892BEE
:10142000E1F6D80116968D919C9117970196179623
:101430009C938E931697CE01DF91CF911F910F91C0
:101440000895FA01AA27283051F1203181F1E8945A
:101450006F936E7F6E5F7F4F8F4F9F4FAF4FB1E0A7
:101460003ED0B4E03CD0670F781F891F9A1FA11DA2
:10147000680F791F8A1F911DA11D6A0F711D811DA3
:10148000911DA11D20D009F468943F912AE0269F68
:1014900011243019305D3193DEF6CF010895462FC7
:1014A0004770405D4193B3E00FD0C9F7F6CF462FA8
:1014B0004F70405D4A3318F0495D31FD4052419311
:1014C00002D0A9F7EACFB4E0A695979587957795CE
:1014D0006795BA95C9F700976105710508959B0155
:1014E000AC010A2E06945795479537952795BA95DE
:1014F000C9F7620F731F841F951FA01D0895F894EC
:02150000FFCF1B
:1015020061026402670231022B02460222026A026F
:101512006D02700273027602790201020408102041
:1015220040804D4F00257320257300414C20202020
:1015320000535400257500253032753A2530327536
:101542003A25303275005355002575202020202081
:101552002020002575200025732020202020202017
:1015620000414D00504D00323400545500574500A3
:10157200544800465200534100534F002D2D2D2D4B
:101582002D2D2D2D2D2D2D2D2D2D2D2D2D2D2D2D89
:101592000020202020202075432D426F617264209C
:1015A20020202020200041546D656761323536309D
:1015B200206174203136204D487A00507265737371
:1015C20020616E79206B657920746F2072756E00D0
:1015D200202072656C6561736520616C6C206B659F
:0815E20079732020003A00009B
:00000001FF
